:020000040800F2
:100000000080002089010008150200081502000880
:100010001502000815020008150200080000000083
:1000200000000000000000000000000015020008B1
:100030001502000800000000150200081502000863
:100040001502000815020008150200081502000834
:100050001502000815020008150200081502000824
:100060001502000815020008150200081502000814
:100070001502000815020008150200081502000804
:1000800015020008150200081502000815020008F4
:1000900015020008150200081502000815020008E4
:1000A00015020008150200081502000815020008D4
:1000B00015020008150200081502000815020008C4
:1000C00015020008150200081502000815020008B4
:1000D00015020008150200081502000815020008A4
:1000E0001502000815020008150200081502000894
:1000F0001502000815020008150200081502000884
:100100001502000815020008150200081502000873
:100110001502000815020008150200081502000863
:100120001502000815020008150200081502000853
:100130001502000815020008150200081502000843
:100140001502000815020008150200081502000833
:100150001502000815020008150200081502000823
:100160001502000815020008150200081502000813
:100170001502000815020008150200081502000803
:10018000150200081502000870B41C491C4CA1425D
:1001900021D21C4802460B4652F8046B43F8046B0C
:1001A000CD436519A342C5F3800514D23DB1126851
:1001B0001A6001F10803A34200F108020BD21146B4
:1001C000184651F8045B526840F8045B5A60031DFE
:1001D0000A1DA342F3D30C480C494FF00002884299
:1001E000B8BF40F8042BFADBDFF82400016841F4C3
:1001F0007001016070BC00F073B800BF0000002007
:10020000000000206408000800000020000000201A
:1002100088ED00E0FEE700BF70B504208AB0012140
:100220004FF4406400F07AF8C4F20204082001217F
:1002300000F066F800254FF44053022620460322C2
:1002400008A908938DF824608DF825208DF8265094
:100250008DF8275000F070F8204632460C2100F04F
:1002600023F920464FF40064C4F2000432460D2105
:1002700000F01AF9632240F2FE33204605A9ADF8DA
:10028000142001260693ADF81C50ADF816508DF8D9
:100290001E5000F0BDF9602320466946ADF80030DD
:1002A000ADF802600295ADF80C5000F029FA204636
:1002B000694600F071FA2046082100F0BDFA204698
:1002C000082100F0C3FA2046314600F0FDF920462F
:1002D000314600F007FA6563A5630AB070BD00BF40
:1002E00008B500F0FBF8FFF797FF4FF40063C4F286
:1002F00000034FF4FA700A2258639A63FEE700BFC6
:100300004FF46053C4F202031A6B19B922EA0001D8
:100310001963704710431863704700BF4FF4605370
:10032000C4F202031A6C19B922EA00011964704779
:1003300010431864704700BF2DE9F00F84B000230C
:100340000A6800911C464FF0010C05E0B04541D011
:100350006C1CBB1C102C60D00CFA04F7651C07EA5F
:1003600002090CFA05F6B94506EA020803F102078C
:10037000ECD10168DDF800B00191032101FA03F12D
:100380006FEA010A01999BF804B0CDF808A00AEAC7
:10039000010AC0F800A001680BFA03FA0BF1FF3B59
:1003A0005FFA8BFB4AEA010ABBF1010FC0F800A01B
:1003B00037D9C4680099DDF808A091F807900AEAD7
:1003C0000401C160C46809FA03F141EA0403B045BD
:1003D000C360BDD14FF0030A066800990AFA07F31B
:1003E000DB430C791E400660066804FA07F9013CFD
:1003F000E4B249EA0606012C06603AD9C468CE790F
:1004000003EA0401C160C46806FA07F343EA040181
:100410006C1CBB1C102CC1609ED104B0BDE8F00F59
:1004200070470099D0F808A049790191009989791D
:100430000391029901EA0A0BC0F808B00199D0F8BB
:1004400008B001FA03F141EA0B0AC0F808A0D0F89D
:1004500004A02AEA0909DDF80CA0C0F80490D0F83D
:1004600004900AFA04FA1FFA8AF141EA0904446086
:100470009FE7846891F8059003EA04068A46897923
:100480008660846809FA07F949EA040686604468C8
:1004900024EA08064660466801FA05F4A1B20E4354
:1004A00046605146AAE700BFCB08083301F00701B8
:1004B000890030B450F823500F2404FA01FC25EAD7
:1004C0000C0440F8234050F8234002FA01F242EABB
:1004D000040140F8231030BC704700BF4FF46D4258
:1004E000CEF200024FF46053D2F88800C4F2020347
:1004F00040F47001C2F888101868002240F0010131
:1005000019609A60186843F2100120F0847C2CF482
:100510008030C2F2004118605960186882B020F43F
:1005200080211960DA6000920192186840F48032EC
:100530001A601A4603E00098B0F5A06F09D0116860
:1005400001F4003301930098411C0091019B002BA2
:10055000F1D04FF4605CC4F2020CDCF8002012F41D
:1005600000330DD001230193019901290CD04FF4E0
:100570006D43CEF200034FF00061996002B0704706
:10058000019301990129F2D14FF46050C4F20200A5
:100590004FF4E04C016CC4F2000C41F08053036452
:1005A000DCF8002042F48041CCF8001083688360BE
:1005B000816841F400428260836845F2084243F456
:1005C000A051C0F2407281604260036843F08072C3
:1005D0000260014608684FF460538201C4F20203CE
:1005E000F8D54FF4705CC4F2020C40F20561CCF80F
:1005F00000109A6822F003009860996841F00202A6
:100600009A609A6802F00C000828FAD1AFE700BFA0
:1006100000230288C4F20103984270B492B21AD047
:100620004FF48064C4F20104A04214D0B0F1804FB2
:1006300011D04FF4806CC4F2000C60450BD04FF425
:100640000063C4F20003984205D04FF44064C4F242
:100650000004A04206D14FF68F73B1F802C01A40D1
:1006600042EA0C024FF48054C4F20004A04223D0AA
:100670004FF4A05CC4F2000C60451DD04FF6FF4360
:100680000E894D680C8802EA030C0022C4F20102B4
:100690004CEA060390420380C562048509D04FF4FA
:1006A0008062C4F20102904203D00123838270BCB5
:1006B0007047897A0186F8E74C68B1F800C002807B
:1006C000C462A0F828C0EAE7038829B923F08001B2
:1006D0000B041A0C0280704799B241F0800303802A
:1006E000704700BF038829B923F001010B041A0CDD
:1006F0000280704799B241F001030380704700BF48
:100700002DE9F001048CB1F802C08E890F8824F025
:10071000010213041D0C0584048C8588028B24F0CF
:10072000020422F073031A04230400244CEA060690
:10073000C4F20104120C1B0CB6B2A042ADB242EAE4
:10074000070246EA03030DD04FF48064C4F20104AB
:10075000A04207D089688580028341630384BDE895
:10076000F00170474FF6F774B1F80EC0B1F812807F
:100770000F8A8E881C4044EA0C0C4FF6FB734FF630
:10078000FF4448EA07070CEA03032C401FFA87FCE2
:1007900033434CEA0405DDE7B0F820C02CF0100329
:1007A0001A042DE9F003140C8D890F884E880484F7
:1007B000038C8488B0F818C023F020021204120CB5
:1007C0002CF4E6431B0442EA051C00251B0CC4F272
:1007D000010543EA07234CEA0612A842A4B29BB2E1
:1007E00092B20DD04FF48065C4F20105A84207D043
:1007F00089688480038381630284BDE8F0037047C5
:100800004FF67F76B1F80E90B1F81080B1F804C0C1
:100810004F8A16404FF2FF35254046EA09164FF63B
:10082000BF7406EA040245EA880442EA0C1244EA6C
:10083000870492B2A4B2DBE7B0F818C02CF008022B
:1008400013041A0C41EA020303837047B0F818C07E
:100850002CF4006213041A0C42EA01218BB20383C8
:04086000704700BF1E
:0400000508000000EF
:00000001FF
