:020000040800F2
:100000000880002089010008F1010008F1010008C2
:10001000F1010008F1010008F101000800000000F2
:10002000000000000000000000000000F1010008D6
:10003000F101000800000000F1010008F1010008D2
:10004000F1010008F1010008F1010008F1010008C8
:10005000F1010008F1010008F1010008F1010008B8
:10006000F1010008F1010008F1010008F1010008A8
:10007000F1010008F1010008F1010008F101000898
:10008000F1010008F1010008F1010008F101000888
:10009000F1010008F1010008F1010008F101000878
:1000A000F1010008F1010008F1010008F101000868
:1000B000F1010008F1010008F1010008F101000858
:1000C000F1010008F1010008F1010008F101000848
:1000D000F1010008F1010008F1010008F101000838
:1000E000F1010008F1010008F1010008F101000828
:1000F000F1010008F1010008F1010008F101000818
:10010000F1010008F1010008F1010008F101000807
:10011000F1010008F1010008F1010008F1010008F7
:10012000F1010008F1010008F1010008F1010008E7
:10013000F1010008F1010008F1010008F1010008D7
:10014000F1010008F1010008F1010008F1010008C7
:10015000F1010008F1010008F1010008F1010008B7
:10016000F1010008F1010008F1010008F1010008A7
:10017000F1010008F1010008F1010008F101000897
:10018000F1010008F101000880B582B000AF124B08
:100190007B60124B3B6007E03B681A1D3A607A684F
:1001A000111D796012681A603B680D4A9342F3D3BF
:1001B0000C480D494FF000028842B8BF40F8042BAC
:1001C000FADBDFF82800016841F47001016000F0FB
:1001D000DDF80837BD4680BD6C0B0008000000202C
:1001E00004000020040000200400002088ED00E04E
:1001F00080B400AFFEE700BF80B582B000AF08203A
:10020000012100F0F3F84FF480433B6001233B7180
:100210000023BB7103237B710023FB713B46034822
:10022000194600F01FF90837BD4680BD000C02409A
:1002300080B582B000AF0120012100F0D7F8012382
:100240003B6000233B710123BB7103237B710023BF
:10025000FB713B460348194600F004F90837BD46D8
:1002600080BD00BF0000024080B58CB000AF0346E7
:10027000FB800420012100F0D7F80820012100F0C4
:10028000B5F84FF44053BB62022387F82C300023AB
:1002900087F82E30032387F82D30002387F82F307E
:1002A00007F128032648194600F0DCF824480C2101
:1002B000022200F07FF922480D21022200F07AF993
:1002C0000023BB840023FB8340F2FE333B62FB88A8
:1002D000BB83002387F8263007F11C031948194611
:1002E00000F05EFA60233B8101237B8100233B61A8
:1002F0000023BB8207F108031248194600F0FAFAFE
:1003000007F108030F48194600F06EFB0D4808215D
:1003100000F0F2FB0B48082100F00AFC094801211B
:1003200000F0A8FA0748012100F0C4FA054B0022AA
:100330005A63044B00229A633037BD4680BD00BF2C
:10034000000C02400008004080B500AF0D4B1B8838
:10035000C82B03D90B4B27221A8005E0094B1B88B9
:100360000A339AB2074B1A80064B1B881846FFF7D0
:100370007BFF054B4FF4FA725A63034B0A229A63D0
:1003800080BD00BF000000200008004080B582B0A2
:1003900000AF2823BB800023FB8000F053F9FFF758
:1003A0002BFFFFF745FFBB881846FFF75DFF0D4B9E
:1003B0004FF4FA725A630B4B0A229A630A480121DE
:1003C00000F0DEF80346002B03D0FB880133FB80EE
:1003D00007E0FB88B3F57A7F03D9FFF7B5FF002369
:1003E000FB80EBE7000800400000024080B483B0CF
:1003F00000AF78600B46FB70FB78002B06D00949F4
:10040000084B1A6B7B6813430B6306E00549054BE9
:100410001A6B7B68DB4313400B630C37BD465DF8FA
:10042000047B70470038024080B483B000AF78602E
:100430000B46FB70FB78002B06D00949084B1A6C61
:100440007B6813430B6406E00549054B1A6C7B6817
:10045000DB4313400B640C37BD465DF8047B7047EB
:100460000038024080B487B000AF78603960002364
:100470007B6100233B610023FB6000237B6176E00E
:100480007B69012202FA03F33B613B681A683B690E
:100490001340FB60FA683B699A4265D17B681A6831
:1004A0007B695B00194603238B40DB431A407B6862
:1004B0001A607B681A683B681B7919467B695B0088
:1004C00001FA03F31A437B681A603B681B79012B1E
:1004D00003D03B681B79022B2ED17B689A687B691D
:1004E0005B00194603238B40DB431A407B689A600C
:1004F0007B689A683B685B7919467B695B0001FA07
:1005000003F31A437B689A607B685A687B699BB2E5
:10051000194601238B40DB431A407B685A607B6895
:100520005B683A68927911467A6992B201FA02F2EE
:1005300092B21A437B685A607B68DA687B699BB227
:100540005B00032101FA03F3DB431A407B68DA60A6
:100550007B68DA683B68DB7919467B695B0001FAE6
:1005600003F31A437B68DA607B6901337B617B6943
:100570000F2B85D91C37BD465DF8047B704700BF43
:1005800080B485B000AF78600B467B800023FB739E
:100590007B681A697B881340002B02D00123FB7310
:1005A00001E00023FB73FB7B18461437BD465DF862
:1005B000047B704780B485B000AF78600B467B80C9
:1005C00013467B700023FB600023BB607B787A8836
:1005D00002F0070292009340FB607B88DB089BB22D
:1005E00018467B88DB089BB21A467B68083253F8B2
:1005F00022207B8803F007039B0019460F238B40C2
:10060000DB4302EA03017B6800F1080243F8221091
:100610007B88DB089BB21A467B68083253F822209D
:10062000FB681343BB607B88DB089BB21A467B6880
:100630000832B96843F822101437BD465DF8047BD0
:10064000704700BF80B500AF154A154BD3F888300E
:1006500043F47003C2F88830124A124B1B6843F00F
:10066000010313600F4B00229A600E4A0D4B1B686A
:1006700023F0847323F4803313600A4B0A4A5A60D0
:10068000084A084B1B6823F480231360054B0022A3
:10069000DA6000F00BF8024B4FF000629A6080BD08
:1006A00000ED00E0003802401030002480B483B038
:1006B00000AF00237B6000233B60354A344B1B684E
:1006C00043F480331360324B1B6803F400333B6008
:1006D0007B6801337B603B68002B03D17B68B3F5FB
:1006E000A06FF0D12A4B1B6803F40033002B02D01B
:1006F00001233B6001E000233B603B68012B42D1BA
:10070000234A234B1B6C43F080531364214A214B33
:100710001B6843F4804313601D4A1D4B9B68936024
:100720001B4A1B4B9B6843F400439360184A184BC9
:100730009B6843F4A0539360154B174A5A60144AC0
:10074000134B1B6843F08073136000BF104B1B6892
:1007500003F00073002BF9D0104B40F205621A60D1
:100760000B4A0B4B9B6823F003039360084A084B2A
:100770009B6843F00203936000BF054B9B6803F046
:100780000C03082BF9D10C37BD465DF8047B70478C
:10079000003802400070004008544007003C02400E
:1007A00080B485B000AF786039600023FB817B683E
:1007B0001B88FB817B68284A934213D07B68274AB9
:1007C00093420FD07B68B3F1804F0BD07B68244AF3
:1007D000934207D07B68234A934203D07B68224A26
:1007E000934208D1FB8923F07003FB813B685A8850
:1007F000FB891343FB817B681C4A93420CD07B68C6
:100800001B4A934208D0FB8923F44073FB813B6869
:100810001A89FB891343FB817B68FA891A803B683C
:100820005A687B68DA623B681A887B681A857B683D
:10083000094A934203D07B68084A934204D13B683B
:100840009B7A9AB27B681A867B6801229A82143757
:10085000BD465DF8047B7047000001400004014084
:100860000004004000080040000C00400010004060
:100870000014004080B483B000AF78600B46FB707A
:10088000FB78002B08D07B681B889BB243F0800369
:100890009AB27B681A8007E07B681B889BB223F0C2
:1008A00080039AB27B681A800C37BD465DF8047BE2
:1008B000704700BF80B483B000AF78600B46FB7018
:1008C000FB78002B08D07B681B889BB243F00103A8
:1008D0009AB27B681A8007E07B681B889BB223F082
:1008E00001039AB27B681A800C37BD465DF8047B21
:1008F000704700BF80B485B000AF786039600023D6
:100900007B810023FB810023BB817B681B8C9BB216
:1009100023F001039AB27B681A847B681B8CFB81ED
:100920007B689B88BB817B681B8B7B817B8923F0E9
:1009300070037B817B8923F003037B813B681A88EA
:100940007B8913437B81FB8923F00203FB813B6896
:100950009A89FB891343FB813B685A88FB891343BF
:10096000FB817B681E4A934203D07B681D4A9342F9
:1009700023D1FB8923F00803FB813B68DA89FB89DB
:100980001343FB81FB8923F00403FB813B689A88B6
:10099000FB891343FB81BB8923F48073BB81BB8933
:1009A00023F40073BB813B681A8ABB891343BB8164
:1009B0003B685A8ABB891343BB817B68BA899A809A
:1009C0007B687A891A833B689A687B685A637B687C
:1009D000FA891A841437BD465DF8047B704700BF5E
:1009E000000001400004014080B485B000AF786091
:1009F000396000237B810023FB810023BB817B685E
:100A00001B8C9BB223F010039AB27B681A847B681C
:100A10001B8CFB817B689B88BB817B681B8B7B81EC
:100A20007B8923F4E0437B817B8923F440737B81C2
:100A30003B681B881B029AB27B8913437B81FB892D
:100A400023F02003FB813B689B891B019AB2FB8941
:100A50001343FB813B685B881B019AB2FB891343FC
:100A6000FB817B68224A934203D07B68214A9342F0
:100A70002BD1FB8923F08003FB813B68DB891B01C1
:100A80009AB2FB891343FB81FB8923F04003FB816E
:100A90003B689B881B019AB2FB891343FB81BB898E
:100AA00023F48063BB81BB8923F40063BB813B6873
:100AB0001B8A9B009AB2BB891343BB813B685B8A4C
:100AC0009B009AB2BB891343BB817B68BA899A8029
:100AD0007B687A891A833B689A687B689A637B682B
:100AE000FA891A841437BD465DF8047B704700BF4D
:100AF000000001400004014080B485B000AF786080
:100B00000B467B800023FB817B681B8BFB81FB8971
:100B100023F00803FB81FA897B881343FB817B6800
:100B2000FA891A831437BD465DF8047B704700BF0D
:100B300080B485B000AF78600B467B800023FB81DA
:100B40007B681B8BFB81FB8923F40063FB817B8823
:100B50001B029AB2FB891343FB817B68FA891A83D3
:0C0B60001437BD465DF8047B704700BFF1
:040B6C003200000053
:0400000508000000EF
:00000001FF
